S01B0000786265655F6D63755F696E74657266616365732E737265633E
S11300000C9434000C9451000C9451000C94510045
S11300100C9458020C9451000C9451000C9451000F
S11300200C9451000C9451000C9451000C94510008
S11300300C9451000C9451000C9451000C945100F8
S11300400C9451000C9451000C9425020C94510012
S11300500C9451000C9451000C9451000C945100D8
S11300600C9451000C94510011241FBECFEFD8E022
S1130070DEBFCDBF11E0A0E0B1E0EEEBF5E002C0E1
S113008005900D92AC33B107D9F722E0ACE3B1E0AF
S113009001C01D92A230B207E1F70E947C020C94C9
S11300A0DD020C94000082E08093B8001092B90045
S11300B084E08093BC00089584EA8093BC00ECEB58
S11300C0F0E080818823ECF708958093BB0084E8F6
S11300D08093BC00ECEBF0E080818823ECF708957A
S11300E084E88093BC00ECEBF0E080818823ECF79B
S11300F08091BB000895CF93DF93C82FD62F0E9421
S11301005C008C2F880F0E9465008D2F0E94650073
S11301100E945C008C2F880F81600E9465000E9401
S1130120700094E99093BC00DF91CF9108958CE224
S113013084B981E58CBD1092010208958EBD0DB481
S113014007FEFDCF8EB5809300028E3721F090918B
S11301500102992351F090910102E92FF0E0E0545B
S1130160FE4F80839F5F9093010208955F926F9288
S11301707F928F929F92AF92BF92CF92DF92EF9233
S1130180FF920F931F93CF93DF93CDB7DEB72897DA
S11301900FB6F894DEBF0FBECDBF4C01FC01019039
S11301A00020E9F731976F01C81AD90A3601860190
S11301B0025F1F4F88E0E0E0F1E0DE01119601905C
S11301C00D928A95E1F72A988EE70E949E00812F6E
S11301D00E949E00802F0E949E0080E10E949E004B
S11301E081E00E949E00CE0101967C015E0199E0AF
S11301F0A90EB11C01E110E0F70151907F01852D9A
S11302000E949E00050D111DAE14BF04A9F78FEFC7
S11302100E949E0001501F4F8EEF0E949E000250CC
S11302201F4F80E00E949E0080E00E949E001614F2
S1130230170484F47401C80CD91C5701F701819187
S11302407F010E949E00F5018081080F111DCE14CC
S1130250DF0499F7802F80950E949E002A9A2896A1
S11302600FB6F894DEBF0FBECDBFDF91CF911F91C3
S11302700F91FF90EF90DF90CF90BF90AF909F9041
S11302808F907F906F905F9008952A98109201024A
S113029019991FC020E430E04FEF4EBD0DB407FEA6
S11302A0FDCF8EB5809300028E3721F0909101022C
S11302B0992351F090910102E92FF0E0E45CFE4FA4
S11302C080839F5F909301022150310911F0199BA3
S11302D0E4CF2A9A8CE391E00895519A50981092B1
S11302E0C5008CE08093C400E1ECF0E0808188607C
S11302F0808380818061808386E08093C20008953A
S1130300E0ECF0E080818823ECF78091C60008954A
S1130310E0ECF0E0908195FFFDCF8093C600089556
S1130320CF93DF93EC018881882331F021960E94DA
S1130330880189918111FBCFDF91CF910895579A5C
S11303405F98569A5E981999FECF56985F9A0895C9
S1130350CF93DF93EC0188818E3709F062C0498125
S113036050E0542F44278A81480F511D55230CF423
S11303705BC0FE01339620E030E060E070E09191D4
S1130380690F711D2F5F3F4F42175307C4F777273B
S11303906F3F710509F04BC08B818A38B9F018F4AE
S11303A0813861F047C08B38B9F0803909F042C018
S11303B0141615062CF18CE791E044C0CA01059788
S11303C0181619067CF08CE791E03CC08C818823D8
S11303D0A1F185E391E036C08885882389F184E121
S11303E091E030C0DE011896ECE7F1E049585E4F29
S11303F08D9181934E175F07D9F78CE791E022C066
S1130400FE013896ACE7B1E0485F5F4FCE01840F40
S1130410951F21912D93E817F907D9F78CE791E0FF
S113042011C08CE291E00EC084E291E00BC084E242
S113043091E008C08CE191E005C088E091E002C041
S11304408CE091E0DF91CF9108951F920F920FB647
S11304500F9211242F933F934F935F936F937F9346
S11304608F939F93AF93BF93EF93FF93CF93DF93B8
S113047000D0CDB7DEB70E94800189831A82CE01F5
S113048001960E94B6000F900F90DF91CF91FF91DB
S1130490EF91BF91AF919F918F917F916F915F91F8
S11304A04F913F912F910F900FBE0F901F90189571
S11304B01F920F920FB60F9211248F939F9330992E
S11304C006C081E090E09093BF018093BE01319912
S11304D006C081E090E09093BD018093BC018FE45D
S11304E093EC0197F1F700C000009F918F910F905A
S11304F00FBE0F901F9018957894E1ECF0E0808186
S1130500806880830E946D010E9497000E949F0171
S11305100E9453008AB18C608AB93898E8E6F0E00A
S1130520808182608083ECE6F0E080818360808358
S113053004E018E019990EC00E9445010E94A80128
S1130540EC016CE071E00E94D402892B19F0CE0119
S11305500E9490018091BE019091BF01892B69F0A6
S11305608BB180278BB91092BF011092BE016FE04E
S11305708BE60E947B000E9488018091BC019091CF
S1130580BD01892B51F08BB181278BB91092BD012C
S11305901092BC0181E40E94880183EF91E00197ED
S11305A0F1F700C00000C6CFFB01DC018D91019082
S11105B080190110D9F3990B0895F894FFCF28
S11305BE000000000000FFFF52535400545820471F
S11305CE4F4F44005458204641494C0046524D204A
S11305DE42414400434B532042414400535452542D
S10F05EE20424144004552524F5200008C
S9030000FC
