S01B0000786265655F6D63755F696E74657266616365732E737265633E
S11300000C9434000C9451000C9451000C94510045
S11300100C9451000C9451000C9451000C94510018
S11300200C9451000C9451000C9451000C94510008
S11300300C9451000C9451000C9451000C945100F8
S11300400C9451000C9451000C9451000C945100E8
S11300500C9451000C9451000C9451000C945100D8
S11300600C9451000C94510011241FBECFEFD8E022
S1130070DEBFCDBF12E0A0E0B1E0E8ECF3E002C0E7
S113008005900D92AE3BB107D9F723E0AEEBB2E099
S113009001C01D92A130B207E1F70E94C8010C947F
S11300A0E2010C9400008CE284B981E58CBD8FEFF1
S11300B0809300031092FF020895813011F42A9A6C
S11300C008952A9808958EBD0DB407FEFDCF8EB510
S11300D08093FE028E3721F09091FF02992351F014
S11300E09091FF02E92FF0E0E254FD4F80839F5F7F
S11300F09093FF0208955F926F927F928F929F92E6
S1130100AF92BF92CF92DF92EF92FF920F931F9321
S1130110CF93DF93CDB7DEB728970FB6F894DEBF41
S11301200FBECDBF4C01FC0101900020E9F73197CF
S11301306F01C81AD90A36018601025F1F4F88E091
S1130140E0E0F1E0DE01119601900D928A95E1F76D
S113015080E00E945D008EE70E946300812F0E9470
S11301606300802F0E94630080E10E94630081E0AD
S11301700E946300CE0101967C015E0199E0A90E04
S1130180B11C01E110E0F70151907F01852D0E941F
S11301906300050D111DAE14BF04A9F78FEF0E9473
S11301A063008EEF0E94630003501E4F80E00E94A4
S11301B0630080E00E9463001614170484F4740141
S11301C0C80CD91C5701F70181917F010E9463007B
S11301D0F5018081080F111DCE14DF0499F7802FDB
S11301E080950E94630081E00E945D0028960FB60E
S11301F0F894DEBF0FBECDBFDF91CF911F910F9159
S1130200FF90EF90DF90CF90BF90AF909F908F9032
S11302107F906F905F900895519A50981092C50006
S113022089E18093C400E1ECF0E080818860808300
S113023080818061808386E08093C2000895E0EC31
S1130240F0E0908195FFFDCF8093C6000895CF9391
S1130250DF93EC018881882331F021960E941F01ED
S113026089918111FBCFDF91CF910895579A5F98BF
S1130270569A5E981999FECF56985F9A0895DC01B4
S11302808C918E3709F072C011966C91119770E0C1
S1130290762F662712968C911297680F711D77231B
S11302A00CF467C0FD01339620E030E040E050E0FC
S11302B09191490F511D2F5F3F4F62177307C4F788
S11302C055274F3F510509F057C013968C9113974A
S11302D08A3821F08B3809F442C051C014968C91AD
S11302E0873059F170F48230F9F030F4882309F43E
S11302F049C0813099F015C08330C9F08630D1F0FF
S113030010C0823319F128F48D30D1F08131D9F045
S113031008C08333F1F08038F9F003C080E291E043
S1130320089588EA92E008958EE391E0089586E5C1
S113033091E008958DE691E008958AE891E00895AA
S113034080EB91E0089587ED91E0089586EF91E0C8
S113035008958BE092E0089583E292E00895189660
S11303608C91882391F082E592E0089581E992E0EE
S1130370089587E792E0089587E792E0089588EA70
S113038092E0089588E091E0089588E392E008956A
S11303900E940C010E9453000E9436018EEB92E0F1
S11303A00E943F010E94270180EB92E00E947B00A3
S11303B02FE38DE093E0215080409040E1F700C0AE
S10B03C00000ECCFF894FFCF1C
S11303C8000000000000FFFF4D6F64656D3A20488F
S11303D8617264776172652072657365740D0A00D1
S11303E84D6F64656D3A205761746368646F672064
S11303F874696D65722072657365740D0A004D6FBA
S113040864656D3A204A6F696E6564206E65747719
S11304186F726B0D0A004D6F64656D3A2044697301
S11304286173736F6369617465640D0A004D6F6469
S1130438656D3A20436F6F7264696E61746F7220E0
S1130448737461727465640D0A004D6F64656D3A66
S1130458204E6574776F726B207365637572697467
S113046879206B657920757064617465640D0A0080
S11304784D6F64656D3A20566F6C746167652073BF
S11304887570706C79206C696D6974206578636522
S1130498656465640D0A004D6F64656D3A20436FA9
S11304A86E66696775726174696F6E206368616EE0
S11304B86765640D0A004D6F64656D3A20424C45CA
S11304C820436F6E6E6563740D0A004D6F64656D2D
S11304D83A20424C4520446973636F6E6E656374B9
S11304E80D0A004D6F64656D3A20537461636B2087
S11304F86572726F720D0A005472616E736D69735E
S113050873696F6E207375636365737366756C0DB9
S11305180A004552524F523A207472616E736D69E3
S11305287373696F6E206E6F74207375636365737C
S11305387366756C0D0A004552524F523A20696E23
S113054876616C696420636865636B73756D0D0A05
S1130558004552524F523A20696E76616C696420A4
S113056873746172740D0A004552524F520D0A0099
S111057848656C6C6F20776F726C6421000014
S9030000FC
