:100000000C9450010C946D010C946D010C946D01D5
:100010000C946D010C946D010C946D010C946D01A8
:100020000C946D010C946D010C946D010C946D0198
:100030000C946D010C946D010C946D010C946D0188
:100040000C946D010C946D010C94B8030C946D012B
:100050000C946D010C946D010C946D010C946D0168
:100060000C946D010C946D01AD03C5029E039E03BB
:100070009E039E039E039E03D802DB029E039E0303
:100080009E039E039E03DE029E039E039E039E0329
:100090009E039E039E039E039E03E1029E039E0316
:1000A000E4029E039E039E039E039E039E039E0303
:1000B0009E03E7029E039E039E039E039E039E03F0
:1000C0009E039E039E039E039E039E039E039E0328
:1000D0009E039E039E039E039E039E039E039E0318
:1000E0009E039E039E039E039E039E039E039E0308
:1000F0009E039E039E039E039E039E039E039E03F8
:100100009E039E039E039E039E039E039E039E03E7
:100110009E039E039E039E039E039E039E039E03D7
:100120009E039E039E039E039E039E039E039E03C7
:100130009E039E039E039E039E039E039E039E03B7
:100140009E039E039E039E039E039E039E039E03A7
:100150009E039E039E039E039E03CF029E039E0367
:100160009E039E039E039E03EA029E03ED022B0361
:100170009E039E039E039E03C802800383039E0387
:100180009E0386039E0389038C039E039E039E03A6
:100190009E039E039E039E039E038F039E0395036F
:1001A00092039E039E039E039E039E039E039E0353
:1001B00098039B03B30336033C0339033903390324
:1001C000390339033903390339033903390339034F
:1001D00039033903390339033903390339033F0339
:1001E000390339033903390339033903390339032F
:1001F0003903390339034203450348034B034E03D4
:1002000051033903390339033903540357035A039C
:100210005D033903390339036003390339033903B3
:1002200039033903390339033903390339033903EE
:1002300039033903390339033903390339033903DE
:1002400039033903390339033903390339033903CE
:1002500039033903390339033903390339033903BE
:1002600039033903390339033903390339033903AE
:10027000390339033903390339033903390339039E
:10028000390339033903390339033903390339038E
:100290003903390339033903390339036303660327
:1002A00011241FBECFEFD8E0DEBFCDBF17E0A0E026
:1002B000B1E0E6E3F8E002C005900D92A432B10788
:1002C000D9F727E0A4E2B7E001C01D92A73EB2072C
:1002D000E1F70E94F6030C9419040C9400008CE2E0
:1002E00084B981E58CBD8FEF8093E6071092E50716
:1002F0000895813011F42A9A08952A9808958EBDA0
:100300000DB407FEFDCF8EB58093E4078E3721F044
:100310009091E507992351F09091E507E92FF0E0DE
:10032000EC55F84F80839F5F9093E50708955F92A7
:100330006F927F928F929F92AF92BF92CF92DF92F5
:10034000EF92FF920F931F93CF93DF93CDB7DEB75A
:1003500028970FB6F894DEBF0FBECDBF4C01FC014D
:1003600001900020E9F731976F01C81AD90A3601C8
:100370008601025F1F4F88E0E0E0F1E0DE011196A8
:1003800001900D928A95E1F780E00E9479018EE755
:100390000E947F01812F0E947F01802F0E947F0198
:1003A00080E10E947F0181E00E947F01CE010196E1
:1003B0007C015E0199E0A90EB11C01E110E0F7019A
:1003C00051907F01852D0E947F01050D111DAE14F6
:1003D000BF04A9F78FEF0E947F018EEF0E947F017B
:1003E00003501E4F80E00E947F0180E00E947F0149
:1003F0001614170484F47401C80CD91C5701F701B2
:1004000081917F010E947F01F5018081080F111DFC
:10041000CE14DF0499F7802F80950E947F0181E040
:100420000E94790128960FB6F894DEBF0FBECDBFAB
:10043000DF91CF911F910F91FF90EF90DF90CF90C0
:10044000BF90AF909F908F907F906F905F90089536
:1004500080E00E9479011092E50719991FC020E4FD
:1004600030E04FEF4EBD0DB407FEFDCF8EB580934B
:10047000E4078E3721F09091E507992351F0909190
:10048000E507E92FF0E0EC5DF84F80839F5F9093E4
:10049000E5072150310911F0199BE4CF81E00E945A
:1004A000790184E297E00895519A50981092C5001E
:1004B00089E18093C400E1ECF0E080818860808372
:1004C00080818061808386E08093C2000895E0ECA3
:1004D000F0E080818823ECF78091C6000895E0EC7D
:1004E000F0E0908195FFFDCF8093C6000895CF93F3
:1004F000DF93EC018881882331F021960E946F02FE
:1005000089918111FBCFDF91CF910895579A5F9820
:10051000569A5E9883B156985F9A08950F931F93E9
:10052000DC018C918E3709F00FC111966C911197F7
:1005300070E0762F662712968C911297680F711DC6
:1005400077230CF404C1FD01339620E030E040E055
:1005500050E09191490F511D2F5F3F4F6217730774
:10056000C4F755274F3F510509F0F4C01396EC919D
:1005700013970E2F10E0F8013897E63AF10508F0CE
:10058000DDC0EC5CFF4F0C94130481E291E0EDC000
:10059000161617060CF4ABC084E697E0E6C0CB0154
:1005A0000597181619060CF494C084E697E0DDC090
:1005B00080E591E0DAC08FE691E0D7C089E991E06B
:1005C000D4C081EC91E0D1C08DED91E0CEC08DEF33
:1005D00091E0CBC08AE192E0C8C014968C9187303C
:1005E00041F170F48230E1F030F4882309F4B8C0AE
:1005F000813099F0A6C08330B1F08630B9F0A1C047
:10060000823301F128F48D30B9F08131C1F099C005
:100610008333D9F08038E1F094C084E592E0A5C03E
:1006200082E792E0A2C08AE892E09FC081EA92E06D
:100630009CC08EEB92E099C084EE92E096C08BE075
:1006400093E093C08AE293E090C08FE393E08DC083
:1006500087E593E08AC018968C9190E086379105E3
:1006600040F4FC01E652FF4F0C9413048FE793E033
:100670007CC08CE197E079C087E993E076C08BEA93
:1006800093E073C080ED93E070C08BEE93E06DC09B
:1006900087E094E06AC08CE194E067C084E394E072
:1006A00064C08AE494E061C08EE694E05EC080E9B4
:1006B00094E05BC081EB94E058C084ED94E055C0B9
:1006C0008AEF94E052C08BE195E04FC088E395E05B
:1006D0004CC0FD013896A4E6B7E0615A784F81918D
:1006E0008D93A617B707D9F784E697E03EC080E060
:1006F00090E0019668177907E1F784E697E035C046
:100700008BE595E032C08FE795E02FC089EA95E050
:100710002CC085ED95E029C08BEF95E026C08FE1D8
:1007200096E023C08EE396E020C08DE596E01DC0E4
:1007300089E896E01AC08BEA96E017C08AEC96E04A
:1007400014C08CE197E011C085E097E00EC08BEEFD
:1007500096E00BC08BEE96E008C088E091E005C003
:100760008CE392E002C08CE693E01F910F91089514
:100770001F920F920FB60F9211241F932F933F9346
:100780004F935F936F937F938F939F93AF93BF9399
:10079000EF93FF93CF93DF9300D01F92CDB7DEB7D7
:1007A0000E946702182F89838DE08A838AE08B83F9
:1007B000CE0101960E949701812F0E946F020F9037
:1007C0000F900F90DF91CF91FF91EF91BF91AF917B
:1007D0009F918F917F916F915F914F913F912F9159
:1007E0001F910F900FBE0F901F9018957894E1EC19
:1007F000F0E08081806880830E9454020E946F0133
:100800000E9486020E942802199906C00E942802AE
:100810000E948E020E94770287EA91E60197F1F723
:1008200000C00000F1CFEE0FFF1F0590F491E02D06
:060830000994F894FFCFCB
:10083600000000000000FFFF547970653A0941543A
:1008460020436F6D6D616E64204672616D650D0AA1
:1008560000547970653A09415420436F6D6D616E9D
:10086600642D517565756520506172616D6574659D
:10087600722056616C7565204672616D650D0A00C1
:10088600547970653A095472616E736D69742052B9
:10089600657175657374204672616D650D0A005445
:1008A6007970653A094578706C69636974204164AA
:1008B6006472657373696E6720436F6D6D616E64F4
:1008C600204672616D650D0A00547970653A0952C9
:1008D600656D6F746520415420436F6D6D616E6464
:1008E6002052657175657374204672616D650D0AD7
:1008F60000547970653A0943726561746520536FD7
:100906007572636520526F7574650D0A00547970AF
:10091600653A095265676973746572204A6F696E34
:10092600696E67204465766963650D0A00547970BF
:10093600653A09424C4520556E6C6F636B204150F9
:1009460049204672616D650D0A00547970653A0951
:10095600415420436F6D6D616E6420526573706FF4
:100966006E7365204672616D650D0A004D6F646594
:100976006D3A0948617264776172652072657365C4
:10098600740D0A004D6F64656D3A095761746368AA
:10099600646F672074696D65722072657365740D86
:1009A6000A004D6F64656D3A094A6F696E65642089
:1009B6006E6574776F726B0D0A004D6F64656D3AE4
:1009C600094469736173736F6369617465640D0AC1
:1009D600004D6F64656D3A09436F6F7264696E61AD
:1009E600746F7220737461727465640D0A004D6FC2
:1009F60064656D3A094E6574776F726B2073656333
:100A06007572697479206B65792075706461746597
:100A1600640D0A004D6F64656D3A09566F6C74611A
:100A2600676520737570706C79206C696D697420C8
:100A360065786365656465640D0A004D6F64656D70
:100A46003A09436F6E66696775726174696F6E20E5
:100A56006368616E6765640D0A004D6F64656D3A83
:100A660009424C4520436F6E6E6563740D0A004D56
:100A76006F64656D3A09424C4520446973636F6E35
:100A86006E6563740D0A004D6F64656D3A095374A3
:100A960061636B206572726F720D0A00586D69741E
:100AA6003A095375636365737366756C0D0A00586E
:100AB6006D69743A094D41432041434B20466169B3
:100AC6006C7572650D0A00586D69743A09434341A5
:100AD600204661696C7572650D0A00586D69743A35
:100AE60009496E76616C69642064657374696E6128
:100AF60074696F6E20656E64706F696E740D0A009E
:100B0600586D69743A094E6574776F726B2041436C
:100B16004B204661696C7572652000586D69743AA0
:100B2600094E6F74204A6F696E656420746F204E9B
:100B36006574776F726B00586D69743A0953656C0A
:100B4600662D61646472657373656400586D6974BB
:100B56003A0941646472657373204E6F7420466F60
:100B6600756E6400586D69743A09526F7574652024
:100B76004E6F7420466F756E6400586D69743A093D
:100B86004661696C656420746F2068656172206EC9
:100B960065696768626F722072656C617900586D6D
:100BA60069743A09496E76616C69642062696E649B
:100BB600696E67207461626C6520696E6465780091
:100BC600586D69743A094C61636B206F66206672D2
:100BD6006565207265736F757263657320283129A8
:100BE60000586D69743A09417474656D7074656472
:100BF6002062726F61646361737420776974682020
:100C060041505300586D69743A09417474656D70AA
:100C160074656420556E69636173742077697468BE
:100C2600204150532045453D3000586D69743A09BE
:100C36004C61636B206F6620667265652072657312
:100C46006F75726365732028322900586D69743A8E
:100C56000944617461207061796C6F616420746FFE
:100C66006F206C6172676500586D69743A09496E48
:100C7600646972656374206D657373616765207559
:100C86006E72657175657374656400547970653A42
:100C9600094578706C6963697420525820496E64FE
:100CA600696361746F72204672616D650D0A005446
:100CB6007970653A09494F20446174612053416D4A
:100CC600706C6520525820496E64696361746F7256
:100CD600204672616D650D0A00547970653A094EB9
:100CE6006F6465204964656E7469666963617469D9
:100CF6006F6E20496E64696361746F72204672611B
:100D06006D650D0A00547970653A0952656D6F7408
:100D16006520436F6D6D616E6420526573706F6EF2
:100D26007365204672616D650D0A00547970653AE7
:100D360009457874656E646564204D6F64656D2041
:100D4600537461747573204672616D650D0A0054A3
:100D56007970653A09526F757465205265636F72D2
:100D66006420496E64696361746F720D0A00547978
:100D760070653A09526567697374657220446576D1
:100D8600696365205374617475730D0A0054797034
:100D9600653A094D616E792D746F2D4F6E6520523F
:100DA6006F757465205265717565737420496E643C
:100DB600696361746F720D0A00547970653A09426D
:100DC6004C4520556E6C6F636B20526573706F6E69
:100DD6007365204672616D650D0A00547970653A37
:100DE600095573657220446174612052656C61799E
:100DF600204F75747075740D0A005741524E494E56
:100E0600473A20556E65787065637465642066722E
:100E1600616D6520747970650D0A004552524F5216
:100E26003A20696E76616C696420636865636B73EA
:100E3600756D0D0A004552524F523A20696E766121
:100E46006C69642073746172740D0A004552524FC6
:040E5600520D0A002F
:00000001FF
