:100000000C9434000C9451000C9451000C94510049
:100010000C9454020C9451000C9451000C94510017
:100020000C9451000C9451000C9451000C9451000C
:100030000C9451000C9451000C9451000C945100FC
:100040000C9451000C9451000C9451000C945100EC
:100050000C9451000C9451000C9451000C945100DC
:100060000C9451000C94510011241FBECFEFD8E026
:10007000DEBFCDBF11E0A0E0B1E0EAE7F6E002C0EC
:1000800005900D92AC33B107D9F722E0ACE3B1E0B3
:1000900001C01D92A332B207E1F70E94AA020C949C
:1000A0003B030C94000082E08093B8001092B900EA
:1000B00084E08093BC00089584EA8093BC00ECEB5C
:1000C000F0E080818823ECF7089584E98093BC00F8
:1000D00008958093BB0084E88093BC00ECEBF0E0D3
:1000E00080818823ECF7089584EC8093BC00ECEBCE
:1000F000F0E080818823ECF78091BB00089584E8CC
:100100008093BC00ECEBF0E080818823ECF78091D9
:10011000BB0008951F93CF93DF93182FD62FC42FC2
:100120000E945C00812F880F0E9469008D2F0E9421
:1001300069008C2F0E94690084E98093BC00DF91E4
:10014000CF911F91089549E068E08BE60E948A00F4
:1001500049E069E08BE60E948A0040E160E18BE6BD
:100160000E948A0040E161E18BE60E948A0040E142
:1001700063E18BE60E948A000895CF93DF930E948B
:100180005C0086ED0E94690082E20E9469000E9484
:100190005C0087ED0E9469000E947400CCE3D1E00E
:1001A00088830E94740089830E9474008A830E945D
:1001B00074008B830E9474008C830E9474008D8372
:1001C0000E9474008E830E9474008F830E947400CA
:1001D00088870E94740089870E9474008A870E9421
:1001E0007F008B870E946500CE01DF91CF9108953B
:1001F0008CE284B981E58CBD1092220208958EBDF7
:100200000DB407FEFDCF8EB5809321028E3721F00D
:1002100090912202992351F090912202E92FF0E06F
:10022000EF51FE4F80839F5F9093220208955F926B
:100230006F927F928F929F92AF92BF92CF92DF92F6
:10024000EF92FF920F931F93CF93DF93CDB7DEB75B
:1002500028970FB6F894DEBF0FBECDBF4C01FC014E
:1002600001900020E9F731976F01C81AD90A3601C9
:100270008601025F1F4F88E0E0E0F1E0DE011196A9
:1002800001900D928A95E1F72A988EE70E94FF006F
:10029000812F0E94FF00802F0E94FF0080E10E94BA
:1002A000FF0081E00E94FF00CE0101967C015E010B
:1002B00099E0A90EB11C01E110E0F70151907F0116
:1002C000852D0E94FF00050D111DAE14BF04A9F776
:1002D0008FEF0E94FF0001501F4F8EEF0E94FF0022
:1002E00002501F4F80E00E94FF0080E00E94FF004C
:1002F0001614170484F47401C80CD91C5701F701B3
:1003000081917F010E94FF00F5018081080F111D7E
:10031000CE14DF0499F7802F80950E94FF002A9A5F
:1003200028960FB6F894DEBF0FBECDBFDF91CF91F8
:100330001F910F91FF90EF90DF90CF90BF90AF9003
:100340009F908F907F906F905F9008952A98109261
:10035000220219991FC020E430E04FEF4EBD0DB4CA
:1003600007FEFDCF8EB5809321028E3721F090914C
:100370002202992351F090912202E92FF0E0E85BEC
:10038000FE4F80839F5F909322022150310911F02C
:10039000199BE4CF2A9A88E491E00895579A5F98D0
:1003A000569A5E981999FECF56985F9A0895CF9302
:1003B000DF93EC0188818E3709F062C0498150E0FB
:1003C000542F44278A81480F511D55230CF45BC0DC
:1003D000FE01339620E030E060E070E09191690F1B
:1003E000711D2F5F3F4F42175307C4F777276F3FA9
:1003F000710509F04BC08B818A38B9F018F4813847
:1004000061F047C08B38B9F0803909F042C014164A
:1004100015062CF188E891E044C0CA01059718162A
:1004200019067CF088E891E03CC08C818823A1F11A
:1004300085E391E036C08885882389F184E191E0E5
:1004400030C0DE011896E8E8F1E04D575E4F8D911F
:1004500081934E175F07D9F788E891E022C0FE012B
:100460003896A8E8B1E0485F5F4FCE01840F951F32
:1004700021912D93E817F907D9F788E891E011C089
:100480008CE291E00EC084E291E00BC084E291E046
:1004900008C08CE191E005C088E091E002C08CE0EA
:1004A00091E0DF91CF9108951F920F920FB60F92B6
:1004B00011248F939F93309906C081E090E0909330
:1004C000E0018093DF01319906C081E090E09093D4
:1004D000DE018093DD01329906C081E090E09093C7
:1004E000DC018093DB01339906C081E090E09093BA
:1004F000DA018093D9018FE493EC0197F1F700C002
:1005000000009F918F910F900FBE0F901F90189534
:1005100078940E94F8000E94CE010E9453008AB194
:100520008C608AB93898E8E6F0E080818260808348
:10053000ECE6F0E080818F6080830E94A300ECE70E
:10054000F0E0808186608083EAE7F0E08081806867
:10055000808308950E948802CC24C394D12C68948F
:10056000772472F86894882483F808EC11E00F2E41
:10057000F0E39F2EF02D0F2EF5EDAF2EF1E0BF2E04
:10058000F02DCAE7D0E00F2EF8E7EF2EF12CF02D7A
:1005900019990EC00E94A6010E94D7016CE071E07B
:1005A0000E943203892B21F0D092D801C092D7014A
:1005B0008091DF019091E001892B39F08BB1872583
:1005C0008BB91092E0011092DF018091DD019091D2
:1005D000DE01892B39F08BB188258BB91092DE01B1
:1005E0001092DD018091DB019091DC01892B39F0C3
:1005F0008BB187258BB91092DC011092DB018091C1
:10060000D9019091DA01892B39F08BB188258BB90A
:100610001092DA011092D9010E94BD00F801908277
:10062000DC01E9ECF1E08D918193EA15FB05D9F746
:10063000888180648883888186FDFDCFF701808171
:100640009181F8019687F70180819181F801858772
:10065000C8010E94170187EA91E60197F1F700C0EF
:10066000000096CFFB01DC018D91019080190110F3
:0A067000D9F3990B0895F894FFCF19
:10067A00000000000000FFFF525354005458204766
:10068A004F4F44005458204641494C0046524D2091
:10069A0042414400434B5320424144005354525474
:0C06AA0020424144004552524F520000D3
:00000001FF
