S01B0000786265655F6D63755F696E74657266616365732E737265633E
S11300000C9434000C9451000C9451000C94510045
S11300100C9457010C9451000C9451000C94510011
S11300200C9451000C9451000C9451000C94510008
S11300300C9451000C9451000C9451000C945100F8
S11300400C9451000C9451000C9451000C945100E8
S11300500C9451000C9451000C9451000C945100D8
S11300600C9451000C94510011241FBECFEFD8E022
S1130070DEBFCDBF11E0A0E0B1E0E2E6F5E002C0F2
S113008005900D92A433B107D9F722E0A4E3B1E0BF
S113009001C01D92AF30B207E1F70E94B3010C9486
S11300A0AF020C94000082E08093B8001092B90073
S11300B084E08093BC00089584EA8093BC00ECEB58
S11300C0F0E080818823ECF708958093BB0084E8F6
S11300D08093BC00ECEBF0E080818823ECF708957A
S11300E0CF93DF93D82FC62F0E945C008D2F880FEB
S11300F00E9465008C2F0E94650084E98093BC00F7
S1130100DF91CF9108950F931F93CF93DF93082F1F
S1130110162FD42FC22F0E945C00802F880F0E94BC
S11301206500812F0E9465008D2F0E9465008C2F31
S11301300E94650084E98093BC00DF91CF911F91F8
S11301400F9108958CE284B980E58CBD10920E0263
S113015008952A9810920E0219991FC020E430E0E5
S11301604FEF4EBD0DB407FEFDCF8EB580930D024B
S11301708E3721F090910E02992351F090910E0246
S1130180E92FF0E0EC5CFE4F80839F5F90930E02BA
S11301902150310911F0199BE4CF2A9A84E391E0AC
S11301A00895579A5F98569A5E981999FECF569873
S11301B05F9A0895CF93DF93EC0188818E3709F01D
S11301C062C0498150E0542F44278A81480F511D51
S11301D055230CF45BC0FE01339620E030E060E070
S11301E070E09191690F711D2F5F3F4F42175307C4
S11301F0C4F777276F3F710509F04BC08B818A38AC
S1130200B9F018F4813861F047C08B38B9F08039FF
S113021009F042C0141615062CF184E791E044C09D
S1130220CA010597181619067CF084E791E03CC0D2
S11302308C818823A1F18DE291E036C088858823E2
S113024089F18CE091E030C0DE011896E4E7F1E03A
S113025041595E4F8D9181934E175F07D9F784E71B
S113026091E022C0FE013896A4E7B1E0485F5F4FF9
S1130270CE01840F951F21912D93E817F907D9F723
S113028084E791E011C084E291E00EC08CE191E03A
S11302900BC08CE191E008C084E191E005C080E0EE
S11302A091E002C084E091E0DF91CF9108951F9224
S11302B00F920FB60F9211248F939F93309903C01E
S11302C081E08093CC01319903C081E08093CB011C
S11302D0329903C081E08093CA01339903C081E05D
S11302E08093C9018FE493EC0197F1F700C00000FB
S11302F09F918F910F900FBE0F901F901895789437
S11303000E94A2000E94D1000E9453008AB18C6016
S11303108AB93898E8E6F0E0808182608083ECE670
S1130320F0E080818F608083559A5D9863EB88E369
S11303300E94700020E040E060E48CE00E948300B2
S113034020E840E261E38CE00E94830020E848E07A
S113035062E38CE00E94830020E840E064E38CE0E8
S11303600E94830008950E947F01BB24B3940F2E42
S1130370F3ECEF2EF1E0FF2EF02D6894CC24C2F8BC
S11303806894DD24D3F804EB11E0912CA12C199985
S113039020C00E94A9000E94DA00EC0164E071E030
S11303A00E94A602892BA9F0B092C80188818033EB
S11303B019F0813349F00DC0E4EBF1E089918193A8
S11303C0EE15FF05D9F705C0B092C7018981809366
S11303D0C6018091CC01882329F08BB18C258BB97F
S11303E01092CC018091CB01882341F08BB18D25F3
S11303F08BB91092CB011092CA0109C08091CA0135
S1130400882329F08BB18C258BB91092CA01809175
S1130410C901882329F08BB18D258BB91092C901AC
S11304208091C801882309F446C08091C3018823C0
S113043071F1F801D485C385868590E0982F8827CB
S11304402585822B880F991F880F991F2091C4013D
S1130450222339F0282F492F62E38CE00E94830085
S113046006C0282F492F64E38CE00E9483008C2F60
S113047090E09C013D2BE901DD2314F4C92DDA2D14
S11304802C2F4D2F61E38CE00E94830012C020E0EA
S113049040E064E38CE00E94830020E040E061E3FC
S11304A08CE00E94830020E040E062E38CE00E9444
S11304B083001092C8018091C701882309F43FC0CA
S11304C08091C601823351F0833301F18033A9F561
S11304D08091C3018B258093C3012FC08091C401F7
S11304E0882319F0813059F028C065EB88E30E9415
S11304F070008091C4018F5F8093C4011EC065E7C2
S113050088E30E9470001092C40117C08091C50155
S1130510882319F0813059F010C063EB88E30E94FE
S113052070008091C5018F5F8093C50106C065EBA3
S113053088E30E9470001092C5011092C701E3EF96
S1130540F1E03197F1F700C0000021CFFB01DC019D
S11305508D91019080190110D9F3990B0895F894A5
S1050560FFCFC7
S113056252535400545820474F4F44005458204685
S113057241494C0046524D2042414400434B5320D2
S11305824241440053545254204241440045525281
S10705924F520000C0
S9030000FC
