:100000000C9434000C9449000C9449000C94490061
:100010000C9449000C9449000C9449000C9449003C
:100020000C9449000C9449000C9449000C9449002C
:100030000C9449000C9449000C9449000C9449001C
:100040000C9449000C9449000C9449000C9449000C
:100050000C9449000C9449000C9449000C944900FC
:100060000C9449000C94490011241FBECFEFD8E036
:10007000DEBFCDBF11E0A0E0B1E0EEE3F2E002C0F0
:1000800005900D92A631B107D9F70E9409010C9491
:100090001D010C9400008CE284B981E58CBD0895AB
:1000A000813011F42A9A08952A9808958EBD0DB4CE
:1000B00007FEFDCF8EB508955F926F927F928F926B
:1000C0009F92AF92BF92CF92DF92EF92FF920F93E7
:1000D0001F93CF93DF93CDB7DEB728970FB6F89471
:1000E000DEBF0FBECDBF4C01FC0101900020E9F73F
:1000F00031976F01C81AD90A36018601025F1F4F76
:1001000088E0E0E0F1E0DE01119601900D928A9521
:10011000E1F780E00E9450008EE70E945600812F98
:100120000E945600802F0E94560080E10E945600D7
:1001300081E00E945600CE0101967C015E0199E0AB
:10014000A90EB11C01E110E0F70151907F01852D4E
:100150000E945600050D111DAE14BF04A9F78FEFC4
:100160000E9456008EEF0E94560003501E4F80E002
:100170000E94560080E00E9456001614170484F472
:100180007401C80CD91C5701F70181917F010E94AD
:100190005600F5018081080F111DCE14DF0499F778
:1001A000802F80950E94560081E00E945000289682
:1001B0000FB6F894DEBF0FBECDBFDF91CF911F9178
:1001C0000F91FF90EF90DF90CF90BF90AF909F90F6
:1001D0008F907F906F905F900895519A50981092F1
:1001E000C50089E18093C400E1ECF0E08081886083
:1001F000808380818061808386E08093C20008953F
:10020000579A5F98569A5E981999FECF56985F9ABA
:1002100008950E94ED000E944B000E94000188E0BA
:1002200091E00E945C002FE38DE093E0215080403C
:0E0230009040E1F700C00000F2CFF894FFCF3D
:10023E00000000000000FFFF48656C6C6F20776FB8
:06024E00726C6421000047
:00000001FF
